:100000000C9446000C9450000C9450000C9450003A
:100010000C9450000C9450000C9450000C94500020
:100020000C9450000C9450000C9450000C94500010
:100030000C9450000C9450000C9450000C94500000
:100040000C9450000C9450000C9450000C945000F0
:100050000C9450000C9450000C9450000C945000E0
:100060000C9450000C9450000C9450000C945000D0
:100070000C9450000C9450000C9450000C945000C0
:100080000C9450000C9450000C94500011241FBE8E
:10009000CFEFD0E1DEBFCDBF0E9452000C949000A4
:1000A0000C940000139A159A80918B0082688093BB
:1000B0008B0080918B00886080938B0080918A00F8
:1000C0008B6180938A0087E893E19093810080930D
:1000D00080002DE730E08CE692E03093870020939B
:1000E000860030938300209382004FEF53ED60E34E
:1000F000415050406040E1F700C0000090938700FD
:100100008093860090938300809382004FEF53ED9D
:1001100060E3415050406040E1F700C00000DDCF97
:04012000F894FFCF81
:00000001FF
